:100000000C9463000C948B000C948B000C948B006C
:100010000C948B000C948B000C948B000C948B0034
:100020000C948B000C948B000C948B000C948B0024
:100030000C948B000C948B000C948B000C948B0014
:100040000C948B040C948B000C948B000C948B0000
:100050000C948B000C948B000C948B000C948B00F4
:100060000C948B000C948B000000000024002700EF
:100070002A0000000000250028002B0000000000DE
:1000800023002600290004040404040404040202DA
:100090000202020203030303030301020408102007
:1000A0004080010204081020010204081020000012
:1000B0000008000201000003040700000000000027
:1000C0000000FE07810811241FBECFEFD8E0DEBF7D
:1000D000CDBF22E0A0EBB1E001C01D92A635B20772
:1000E000E1F711E0A0E0B1E0E2EFF5E102C0059038
:1000F0000D92A03BB107D9F710E0C2E6D0E004C0F2
:100100002197FE010E94EB08C136D107C9F70E9472
:1001100011050C94EC0A0C94000096E0899FD00124
:100120001124AB53BE4F90967C936E935F9791E0F2
:1001300091969C939197E0913202F09133029091C5
:100140003102992339F0309751F0811108C0809124
:10015000E1010994309719F05C968C91FACF0895DB
:10016000833081F028F4813099F08230A9F008952D
:100170008730A9F08830C9F08430B1F480918000D4
:100180008F7D03C0809180008F77809380000895D9
:1001900084B58F7784BD089584B58F7DFBCF809122
:1001A000B0008F778093B00008958091B0008F7D6C
:1001B000F9CFCF93DF93282F30E0F901E255FF4FBD
:1001C0008491F901E656FF4FD491F901EA57FF4FA8
:1001D000C491CC23A1F081110E94B000EC2FF0E07B
:1001E000EE0FFF1FE458FF4FA591B491EC91ED2362
:1001F00081E090E009F480E0DF91CF91089580E004
:1002000090E0FACF1F93CF93DF93282F30E0F901CE
:10021000E255FF4F8491F901E656FF4FD491F90161
:10022000EA57FF4FC491CC23A9F0162F81110E94E9
:10023000B000EC2FF0E0EE0FFF1FEE58FF4FA5913E
:10024000B4918FB7F894EC91111108C0D095DE23CA
:10025000DC938FBFDF91CF911F910895DE2BF8CFF4
:10026000CF93DF9390E0FC01E656FF4F24918A572D
:100270009F4FFC0184918823C9F090E0880F991F5B
:10028000FC01E859FF4FA591B491FC01EE58FF4FD6
:10029000C591D49161110DC09FB7F8948C912095B0
:1002A00082238C938881282328839FBFDF91CF915D
:1002B0000895623051F49FB7F8943C91822F809555
:1002C00083238C93E8812E2BEFCF8FB7F894EC919A
:1002D0002E2B2C938FBFEACF3FB7F8948091C101AA
:1002E0009091C201A091C301B091C40126B5A89B11
:1002F00005C02F3F19F00196A11DB11D3FBFBA2FB8
:10030000A92F982F8827BC01CD01620F711D811D77
:10031000911D42E0660F771F881F991F4A95D1F7FC
:1003200008958F929F92AF92BF92CF92DF92EF92F9
:10033000FF924B015C010E946C016B017C010E94E9
:100340006C016C197D098E099F09683E7340810517
:100350009105A8F321E0821A9108A108B10888EE5E
:10036000C80E83E0D81EE11CF11C81149104A10485
:10037000B10429F7FF90EF90DF90CF90BF90AF903E
:100380009F908F9008952FB7F8946091BD01709160
:10039000BE018091BF019091C0012FBF08950F93BE
:1003A0001F93CF93DF93C82FD62F86E0C89FF0010D
:1003B0001124EB53FE4F11A2878D90A1813091053E
:1003C000F1F058F082309105F1F1039709F440C043
:1003D000DF91CF911F910F9108956623C9F361E0DA
:1003E00070E08C2F0E948D000E94C30160931D025B
:1003F00070931E0280931F0290932002E9CF0E9407
:10040000C30100911D0210911E0220911F02309124
:100410002002AB01BC01401B510B620B730B80919E
:100420002F0290913002B0E0A0E084179507A60754
:10043000B70748F462E070E08C2FDF91CF911F91F5
:100440000F910C948D0063E070E0D111C1CFF4CF17
:1004500070E060E0F1CF862F642F0C943001862F7E
:10046000642F0C940201862F0C94D900AF92BF9296
:10047000CF92DF92EF92FF920F931F93CF93DF9370
:100480006C017B018B01040F151FEB015E01AE189F
:10049000BF08C017D10759F06991D601ED91FC91C1
:1004A0000190F081E02DC6010995892B79F7C501EE
:1004B000DF91CF911F910F91FF90EF90DF90CF9040
:1004C000BF90AF900895089590E080E008958F92D6
:1004D0009F92AF92BF920F931F93CF93DF93CDB7AD
:1004E000DEB7A1970FB6F894DEBF0FBECDBF19A23D
:1004F000423008F44AE08E010F5D1F4F842E912C8C
:10050000B12CA12CA50194010E94C908E62FB901C4
:10051000CA01EA3044F5E05DD801EE938D01232B4A
:10052000242B252B79F790E080E0109769F0FD01EE
:1005300001900020E9F73197AF014A1B5B0BBD0129
:100540008AE392E00E943602A1960FB6F894DEBFCD
:100550000FBECDBFDF91CF911F910F91BF90AF9094
:100560009F908F900895E95CD7CFFC010190002007
:10057000E9F73197AF01481B590BBC018AE392E0C0
:100580000C943602CF93DF93EC0160E08E810E94E1
:10059000020161E08E810E94020160E08E810E9472
:1005A00002018BE891E00197F1F7DF91CF91089577
:1005B000CF92DF92EF92FF920F931F93CF93DF932F
:1005C0006C017C0187E0E80EF11CD0E0C0E0062F52
:1005D00010E0B8010C2E02C0759567950A94E2F7F9
:1005E0006170F70181917F010E9402012196C43060
:1005F000D10579F7C601DF91CF911F910F91FF903F
:10060000EF90DF90CF900C94C202CF92DF92EF92E6
:10061000FF920F931F93CF93DF93EC01F62E642F7D
:100620008C810E9402018D818F3F19F060E00E9451
:1006300002010F2D10E08F8584FF25C06E0187E039
:10064000C80ED11CF12CE12CB8010E2C02C07595FE
:1006500067950A94E2F76170F60181916F010E943B
:100660000201FFEFEF1AFF0A88E0E816F10461F7D4
:10067000CE01DF91CF911F910F91FF90EF90DF900E
:10068000CF900C94C202B80184E0759567958A9565
:10069000E1F7CE010E94D8026F2DCE01DF91CF91FC
:1006A0001F910F91FF90EF90DF90CF900C94D802A4
:1006B00040E0682F8AE392E00C94050381E00E94F9
:1006C00058038BE39FE10197F1F7089561E08CE017
:1006D0000E94020181E08093BB011092BA010E9446
:1006E0005E0380E391E00C94B502CF93DF938230F8
:1006F00029F49091490298609093490280934D02A9
:1007000010924E0280E480934F0280E18093500269
:1007100080E58093510261E080913E020E943001A9
:1007200080913F028F3F19F061E00E94300161E04B
:10073000809140020E943001CAE3D2E09E012A5318
:1007400032408091490284FD0BC084E090E0219604
:100750002817390744F461E08E810E943001EECF02
:1007600088E090E0F4CF8BE39DE00197F1F760E043
:1007700080913E020E94020160E0809140020E944E
:10078000020180913F028F3F19F060E00E94020158
:100790008091490284FD34C063E08AE392E00E94C4
:1007A000D802CBE4D6E4CE010197F1F763E08AE307
:1007B00092E00E94D8022197F1F763E08AE392E089
:1007C0000E94D80283E592E00197F1F762E08AE3A4
:1007D00092E00E94D8028091490280620E945803F0
:1007E00084E080934A028CE00E9458030E945E03DA
:1007F00082E080934B0286E0DF91CF910C94580306
:1008000080620E9458038BE496E40197F1F780918F
:10081000490280620E94580383E592E00197F1F754
:100820008091490280620E945803D5CF90914D0279
:10083000691710F06FEF690FE62FF0E0E65CFD4FEF
:100840009489890F80680C94580341E00E94050345
:1008500081E090E008950F931F93CF93DF93EC0115
:1008600088819981009759F02A813B8126173707A3
:1008700030F081E0DF91CF911F910F9108958B01AE
:100880006F5F7F4F0E94160A009759F09983888303
:100890001B830A832C813D81232B59F7FC01108295
:1008A000E8CF80E0E7CF70E060E084E392E00E9470
:1008B0002B042091340230913502811113C021158F
:1008C000310519F0C9010E948D091092350210926C
:1008D00034021092390210923802109237021092AC
:1008E0003602089510923902109238026CE771E0D6
:1008F000C9010C94E50A60E08CE00E9402011092AC
:10090000BA011092BB010E9453040E945E0389E366
:1009100091E00C94B5021F920F920FB60F92112422
:100920002F933F938F939F93AF93BF938091BD017C
:100930009091BE01A091BF01B091C0013091BC0166
:1009400023E0230F2D3758F50196A11DB11D2093EB
:10095000BC018093BD019093BE01A093BF01B093F1
:10096000C0018091C1019091C201A091C301B091D9
:10097000C4010196A11DB11D8093C1019093C201D4
:10098000A093C301B093C401BF91AF919F918F9188
:100990003F912F910F900FBE0F901F90189526E852
:1009A000230F0296A11DB11DD2CFEF92FF920F939C
:1009B0001F93CF93DF93EC017B01198218821B8276
:1009C0001A821D821C82FB0101900020E9F73197F9
:1009D0008F01061B170BB8010E942B042881398157
:1009E000811113C02115310519F0C9010E948D092B
:1009F000198218821D821C821B821A82DF91CF917C
:100A00001F910F91FF90EF9008951D830C83B70104
:100A1000C901DF91CF911F910F91FF90EF900C943E
:100A2000E50ACF93DF9300D0CDB7DEB7789484B5D5
:100A3000826084BD84B5816084BD85B5826085BDDA
:100A400085B5816085BD80916E00816080936E0068
:100A5000109281008091810082608093810080915A
:100A6000810081608093810080918000816080930B
:100A700080008091B10084608093B1008091B000CB
:100A800081608093B00080917A00846080937A00C6
:100A900080917A00826080937A0080917A008160F0
:100AA00080937A0080917A00806880937A00109217
:100AB000C10062E082E00E94300162E083E00E94B7
:100AC000300162E084E00E94300161E08CE00E942D
:100AD000300182E00E94750389E391E00E94B50233
:100AE00036E0232E48EE442E43E0542E612C712C28
:100AF00081E0809331020E94C30100912102109194
:100B000022022091230230912402AB01BC01401B40
:100B1000510B620B730B80912D0290912E02B0E06D
:100B2000A0E084179507A607B70708F00BC110E0EF
:100B300080912B02181760F4E0912702F0912802AF
:100B4000E10FF11D62E080810E9430011F5FF0CF54
:100B5000A12C80912C02A81608F063C0EA2CF12C7D
:100B6000E0912902F0912A02EE0DFF1D61E08081E3
:100B70000E943001E0912902F0912A02EE0DFF1D42
:100B800060E080810E94020181E090E0A0E0B0E09E
:100B90000A2C04C0880F991FAA1FBB1F0A94D2F702
:100BA0004C016C01C094D094312C80912B023816EA
:100BB00008F5032D10E0E0912702F0912802E00FE4
:100BC000F11F80810E94D9000C5F1F4F000F111F81
:100BD000F801EB53FE4F892B41F4808191818829E4
:100BE0009929918380833394E0CF808191818C21F6
:100BF0009D21F7CFE0912902F0912A02EE0DFF1D11
:100C000061E080810E9402018091290290912A0274
:100C1000E80EF91E60E0F70180810E943001A39484
:100C200098CF95ECE92E91E0F92E8701F801878D98
:100C300090A1892B31F4148E8FEF9FEF968F858FC3
:100C400011A20A5F1F4F92E00130190779F7D12CEA
:100C500080912B02D81608F052C0C12C8D2C912CFB
:100C6000880C991CF401E353FE4F4F0120912C0294
:100C7000C21608F042C0F401608171810C2C02C0E0
:100C8000769567950A94E2F7D29E900111242C0D77
:100C9000311DE5ECF1E080E0458D568D24173507D8
:100CA00009F491C18F5F36968A30B1F760FF23C097
:100CB000E5ECF1E090E080E0448D411117C0E09157
:100CC0002502F0912602E20FF31F4081289EF001D9
:100CD000299EF00D1124EB53FE4F448F368F258F44
:100CE00010A2178E61E00E94CF0105C001963696D2
:100CF0008A30910509F7C394B9CFD394A9CFD12CE9
:100D0000F70181A18111D82EF6E0EF0EF11C0E152E
:100D10001F05B1F70E94C301609321027093220264
:100D20008093230290932402DD2061F08091E601FC
:100D3000882341F08091E4019091E5011091E10157
:100D4000019719F01092310210E08091BB018823C5
:100D5000C1F01A32B1F40E945E038CE491E00E946B
:100D6000B50268EE73E080E090E00E9491010E947D
:100D70007B04E0E0F0E0EF2B09F4BACE0E94000023
:100D8000B7CE8091BA01882309F4D4C00E94C30170
:100D9000C090B601D090B701E090B801F090B901D1
:100DA0004B015C018C189D08AE08BF0860E177E23A
:100DB00080E090E0681979098A099B09A3019201F2
:100DC0000E94C908690160E080E00E94160489E57C
:100DD00091E00E94B50261E080E00E94160489E67D
:100DE00091E00E94B5020D2C000CEE08FF084AE0CD
:100DF000C701B601F7FE0EC041E06DE28AE392E062
:100E00000E94050366277727CB016C197D098E099F
:100E10009F094AE00E94670285E791E00E94B502BF
:100E2000112309F47BC0133291F5209138023091DF
:100E300039028091B4019091B50128173907C1F4A6
:100E400080913402909135026091B0017091B101AE
:100E5000009709F4BAC06115710539F4232B09F420
:100E6000C2C0FC01808190E0BBC00E94DC0AB8C017
:100E70000E945E038FE891E00E94B50268EE73E085
:100E800080E090E00E9491010E94660372CF1A32C6
:100E900099F40E9453040E945E0360E080E00E9487
:100EA00016048CE491E00E94B50268EE73E080E0E5
:100EB00090E00E9491015DCF19831A82009138025F
:100EC000109139020F5F1F4FB80184E392E00E9436
:100ED0002B04882399F020913402309135028091BF
:100EE000380290913902BE016F5F7F4F820F931FCE
:100EF0000E94E50A109339020093380261E08AE00B
:100F00000E941604409138025091390260913402D7
:100F1000709135028AE392E00E943602F1E18F1669
:100F2000F7E29F06A104B10428F00E945E038FE956
:100F300091E0A2CF8091BA01811120C08091BB01C4
:100F400081111CC0809113018823E1F082E00E948E
:100F5000D900892B69F50E94C3016093B601709393
:100F6000B7018093B8019093B90181E08093BA01F1
:100F70000E9453040E945E0310921301809113019A
:100F80008111F7CE82E00E94D900019709F0F1CEDD
:100F900083E00E94D900019709F0EBCE84E00E9423
:100FA000D900019709F0E5CE91E090931301E1CECD
:100FB00083E00E94D900892B71F284E00E94D9005D
:100FC000892B49F2D6CE61708ECE6115710559F02C
:100FD000232B49F0FB01808190E091958195910947
:100FE000892B09F045CF0E945E038DE791E00E94B6
:100FF000B50260ED77E080E090E0B7CE10923D0260
:1010000010923C0288E291E090933B0280933A0276
:101010008EE080933E028FEF80933F028FE08093BB
:10102000400280E18093410281E18093420282E1AB
:101030008093430283E18093440210924502109210
:10104000460210924702109248021092490281E033
:101050000E9475031092C7011092CB011092CA0131
:101060001092CC018EE191E09093C6018093C5016E
:10107000E1EEF1E01082148213821582369682E04E
:10108000ED31F807B9F783E091E09093280280935F
:10109000270280E091E090932A028093290284E065
:1010A00080932B0283E080932C0287E091E0909361
:1010B0002602809325028AE090E090932E0280938E
:1010C0002D0284EF91E09093300280932F021092D2
:1010D00033021092320210922102109222021092D8
:1010E000230210922402109231026BEA71E080EB2D
:1010F00091E00E94D5046CE771E084E392E00C94E7
:10110000D5048091340290913502009711F00E942D
:101110008D098091B0019091B101009711F00C946C
:101120008D0908952F923F924F925F926F927F9216
:101130008F929F92AF92BF92CF92DF92EF92FF92E7
:101140000F931F93CF93DF93CDB7DEB7CA1BDB0B93
:101150000FB6F894DEBF0FBECDBF09942A88398838
:1011600048885F846E847D848C849B84AA84B9843F
:10117000C884DF80EE80FD800C811B81AA81B9814B
:10118000CE0FD11D0FB6F894DEBF0FBECDBFED015F
:101190000895A1E21A2EAA1BBB1BFD010DC0AA1FB8
:1011A000BB1FEE1FFF1FA217B307E407F50720F0D0
:1011B000A21BB30BE40BF50B661F771F881F991F4B
:1011C0001A9469F760957095809590959B01AC0194
:1011D000BD01CF010895EE0FFF1F0590F491E02DA2
:1011E00009940F931F93CF93DF938230910510F4EE
:1011F00082E090E0E0915402F091550230E020E06E
:10120000B0E0A0E0309799F42115310509F44AC007
:10121000281B390B24303105D8F58A819B81611553
:10122000710589F1FB0193838283FE0111C0408126
:1012300051810281138148175907E0F04817590777
:1012400099F4109761F012960C93129713961C93D1
:101250003296CF01DF91CF911F910F9108950093A6
:10126000540210935502F4CF2115310551F0421765
:10127000530738F0A901DB019A01BD01DF01F80134
:10128000C1CFEF01F9CF9093550280935402CDCF97
:10129000FE01E20FF31F81939193225031093983AC
:1012A0002883D7CF2091520230915302232B41F44F
:1012B000209116013091170130935302209352026E
:1012C00020911401309115012115310541F42DB7FC
:1012D0003EB74091180150911901241B350BE09144
:1012E0005202F0915302E217F307A0F42E1B3F0BBA
:1012F0002817390778F0AC014E5F5F4F2417350788
:1013000048F04E0F5F1F5093530240935202819357
:1013100091939FCFF0E0E0E09CCFCF93DF930097D5
:10132000E9F0FC01329713821282A0915402B0912D
:101330005502ED0130E020E01097A1F420813181C9
:10134000820F931F209152023091530228173907C0
:1013500009F061C0F0935302E0935202DF91CF9104
:101360000895EA01CE17DF07E8F54A815B819E0107
:1013700041155105B1F7E901FB83EA834991599180
:10138000C40FD51FEC17FD0761F48081918102968F
:10139000840F951FE90199838883828193819B83C0
:1013A0008A83F0E0E0E012968D919C91139700976C
:1013B000B9F52D913C911197CD010296820F931FA3
:1013C00020915202309153022817390739F630978D
:1013D00051F51092550210925402B0935302A0930B
:1013E0005202BCCFD383C28340815181840F951FA9
:1013F000C817D90761F44E5F5F4F88819981480F04
:10140000591F518340838A819B8193838283211555
:10141000310509F0B0CFF0935502E09354029ECF0E
:10142000FD01DC01C0CF13821282D7CFB0E0A0E073
:10143000ECE1FAE00C9494088C01009751F4CB0194
:101440000E94F1088C01C801CDB7DEB7E0E10C9431
:10145000B008FC01E60FF71F9C0122503109E2178A
:10146000F30708F49DC0D901CD91DC911197C617FF
:10147000D70798F0C530D10530F3CE010497861711
:10148000970708F3C61BD70B2297C193D1936D938F
:101490007C93CF010E948D09D6CF5B01AC1ABD0AA7
:1014A0004C018C0E9D1EA0915402B0915502512CFE
:1014B000412CF12CE12C109731F580915202909142
:1014C00053028815990509F05CC04616570608F0C6
:1014D00058C08091140190911501009741F48DB787
:1014E0009EB74091180150911901841B950BE81784
:1014F000F90708F055C0F0935302E0935202F90146
:1015000071836083A0CF8D919C91119712966C90FE
:10151000129713967C901397A815B90559F56C018D
:1015200042E0C40ED11CCA14DB0420F1AC014A19FC
:101530005B09DA011296159780F0628273825183FB
:101540004083D9016D937C93E114F10471F0D701CC
:101550001396FC93EE93129776CF22968C0F9D1FD5
:10156000F90191838083F301EFCFF0935502E0936B
:10157000540269CF4816590608F42C017D01D301A5
:101580009ACFCB010E94F1087C01009749F0AE018F
:10159000B8010E94D30AC8010E948D09870153CF68
:1015A00010E000E050CFFB01DC0102C001900D9281
:1015B00041505040D8F70895FB01DC018D91019016
:1015C00080190110D9F3990B0895FB01DC010190FA
:1015D0000D920020E1F7089510E0C2E6D0E004C0CB
:1015E000FE010E94EB082196C336D107C9F7F89493
:0215F000FFCF2B
:1015F200090A0B05060708313233343536373839D4
:101602002A302301000056028000000000002B0255
:101612002F02330200000000250436026402630236
:10162200414C41524D2121210053797374656D2043
:1016320069732052656164792E2E2E00526573659E
:101642007474696E672E2E2E00456E74657220507A
:10165200617373776F72643A0052656D61696E6986
:101662006E673A20002073656320202000436F726A
:10167200726563742050617373776F7264210057CF
:10168200726F6E672050617373776F7264210054BA
:10169200696D652069732055702100313233340041
:00000001FF
